{
  "contractName": "Elections",
  "abi": [
    {
      "constant": true,
      "inputs": [
        {
          "name": "",
          "type": "address"
        }
      ],
      "name": "hasVoted",
      "outputs": [
        {
          "name": "",
          "type": "bool"
        }
      ],
      "payable": false,
      "stateMutability": "view",
      "type": "function",
      "signature": "0x09eef43e"
    },
    {
      "constant": true,
      "inputs": [
        {
          "name": "",
          "type": "uint256"
        }
      ],
      "name": "Candidates",
      "outputs": [
        {
          "name": "id",
          "type": "uint256"
        },
        {
          "name": "name",
          "type": "string"
        },
        {
          "name": "party",
          "type": "string"
        },
        {
          "name": "voteCount",
          "type": "uint256"
        }
      ],
      "payable": false,
      "stateMutability": "view",
      "type": "function",
      "signature": "0x290e9212"
    },
    {
      "constant": true,
      "inputs": [],
      "name": "candidateCount",
      "outputs": [
        {
          "name": "",
          "type": "uint256"
        }
      ],
      "payable": false,
      "stateMutability": "view",
      "type": "function",
      "signature": "0xa9a981a3"
    },
    {
      "inputs": [],
      "payable": false,
      "stateMutability": "nonpayable",
      "type": "constructor",
      "signature": "constructor"
    },
    {
      "anonymous": false,
      "inputs": [
        {
          "indexed": false,
          "name": "id",
          "type": "uint256"
        },
        {
          "indexed": false,
          "name": "name",
          "type": "string"
        },
        {
          "indexed": false,
          "name": "party",
          "type": "string"
        },
        {
          "indexed": false,
          "name": "voteCount",
          "type": "uint256"
        }
      ],
      "name": "electionsUpdated",
      "type": "event",
      "signature": "0x693479d9a01eee2eef432469f81e9d908b9b060b88cc3595181d6e1f1f447cc3"
    },
    {
      "constant": false,
      "inputs": [
        {
          "name": "_id",
          "type": "uint256"
        }
      ],
      "name": "Vote",
      "outputs": [],
      "payable": false,
      "stateMutability": "nonpayable",
      "type": "function",
      "signature": "0xdcd6a5cd"
    }
  ],
  "bytecode": "0x608060405234801561001057600080fd5b506100946040805190810160405280600f81526020017f4e6172656e6472612044204d6f646900000000000000000000000000000000008152506040805190810160405280600381526020017f424a50000000000000000000000000000000000000000000000000000000000081525061019f640100000000026401000000009004565b6101176040805190810160405280600c81526020017f536f6e69612047616e64686900000000000000000000000000000000000000008152506040805190810160405280600381526020017f494e43000000000000000000000000000000000000000000000000000000000081525061019f640100000000026401000000009004565b61019a6040805190810160405280600f81526020017f417276696e64204b656a726977616c00000000000000000000000000000000008152506040805190810160405280600381526020017f414150000000000000000000000000000000000000000000000000000000000081525061019f640100000000026401000000009004565b6102bc565b6000805460019081018083556040805160808101825282815260208082018881528284018890526060830187905293865284815291909420845181559151805192936101f393908501929190910190610221565b506040820151805161020f916002840191602090910190610221565b50606082015181600301559050505050565b828054600181600116156101000203166002900490600052602060002090601f016020900481019282601f1061026257805160ff191683800117855561028f565b8280016001018555821561028f579182015b8281111561028f578251825591602001919060010190610274565b5061029b92915061029f565b5090565b6102b991905b8082111561029b57600081556001016102a5565b90565b61061e806102cb6000396000f3fe6080604052600436106100615763ffffffff7c010000000000000000000000000000000000000000000000000000000060003504166309eef43e8114610066578063290e9212146100ba578063a9a981a3146101d0578063dcd6a5cd146101f7575b600080fd5b34801561007257600080fd5b506100a66004803603602081101561008957600080fd5b503573ffffffffffffffffffffffffffffffffffffffff16610223565b604080519115158252519081900360200190f35b3480156100c657600080fd5b506100e4600480360360208110156100dd57600080fd5b5035610238565b604051808581526020018060200180602001848152602001838103835286818151815260200191508051906020019080838360005b83811015610131578181015183820152602001610119565b50505050905090810190601f16801561015e5780820380516001836020036101000a031916815260200191505b50838103825285518152855160209182019187019080838360005b83811015610191578181015183820152602001610179565b50505050905090810190601f1680156101be5780820380516001836020036101000a031916815260200191505b50965050505050505060405180910390f35b3480156101dc57600080fd5b506101e5610376565b60408051918252519081900360200190f35b34801561020357600080fd5b506102216004803603602081101561021a57600080fd5b503561037c565b005b60026020526000908152604090205460ff1681565b600160208181526000928352604092839020805481840180548651600296821615610100026000190190911695909504601f810185900485028601850190965285855290949193929091908301828280156102d45780601f106102a9576101008083540402835291602001916102d4565b820191906000526020600020905b8154815290600101906020018083116102b757829003601f168201915b50505060028085018054604080516020601f60001961010060018716150201909416959095049283018590048502810185019091528181529596959450909250908301828280156103665780601f1061033b57610100808354040283529160200191610366565b820191906000526020600020905b81548152906001019060200180831161034957829003601f168201915b5050505050908060030154905084565b60005481565b3360009081526002602052604090205460ff16156103fb57604080517f08c379a000000000000000000000000000000000000000000000000000000000815260206004820152601760248201527f596f75206861766520766f74656420416c726561647921000000000000000000604482015290519081900360640190fd5b600081815260016020526040902054151561047757604080517f08c379a000000000000000000000000000000000000000000000000000000000815260206004820152601060248201527f696420646f73656e277420657869737400000000000000000000000000000000604482015290519081900360640190fd5b6000818152600160208181526040808420600381018054850181553386526002808552838720805460ff1916871790559587905284845254825187815260608101829052608094810185815283870180546000199881161561010002989098019097168890049582018690527f693479d9a01eee2eef432469f81e9d908b9b060b88cc3595181d6e1f1f447cc3978997969401949293919290919083019060a0840190879080156105695780601f1061053e57610100808354040283529160200191610569565b820191906000526020600020905b81548152906001019060200180831161054c57829003601f168201915b50508381038252855460026000196101006001841615020190911604808252602090910190869080156105dd5780601f106105b2576101008083540402835291602001916105dd565b820191906000526020600020905b8154815290600101906020018083116105c057829003601f168201915b5050965050505050505060405180910390a15056fea165627a7a72305820b1e6c2a4d0cade2f8e90ad083feb888cfbfce53b801b92247f85876895094f760029",
  "source": "pragma solidity >=0.4.22 < 0.9.0;\r\n\r\ncontract Elections{\r\n    //create a candidate structure.\r\n    struct Candidate{\r\n        uint id;\r\n        string name;\r\n        string party;\r\n        uint voteCount;\r\n    }\r\n\r\n    //Candidate counter\r\n    uint public candidateCount;\r\n\r\n    //mappings \r\n    //1. candidates ; 2. hasVoted (for particualr accounts, to check have they voted already.)\r\n    \r\n    mapping(uint => Candidate) public Candidates;\r\n    mapping(address => bool) public hasVoted;\r\n\r\n    //creating an event to keep the logs after the voting process.\r\n    event electionsUpdated(\r\n        uint id,\r\n        string name,\r\n        string party,\r\n        uint voteCount\r\n        );\r\n    \r\n    //defining the constructor.\r\n    constructor() public {\r\n        addCandidate(\"Narendra D Modi\", \"BJP\");\r\n        addCandidate(\"Sonia Gandhi\", \"INC\");\r\n        addCandidate(\"Arvind Kejriwal\",\"AAP\");\r\n    }\r\n    \r\n    // defining a function to add the candidates. shouldn't be a public function\r\n    //memory keyword specifies storing data temporarily\r\n    function addCandidate(string memory name, string memory party) private {\r\n        candidateCount++;\r\n        // populating Candidates mapping with a real candidate information on particular index (candidateCount).\r\n        Candidates[candidateCount] = Candidate(candidateCount,name,party,0);\r\n        //initial votes for every candidate is set as 0 by default.\r\n\r\n    }\r\n\r\n    //definig a function for casting vote\r\n    function Vote(uint _id) public{\r\n        \r\n        //puttting a condition before the process. If the particulare account has already voted, it can't vote further.\r\n        // msg is a global variable. msg.sender will return the particular address of the voter.\r\n        require(!hasVoted[msg.sender],'You have voted Already!');\r\n        \r\n        //checking the vote is casted for a valid candidate id\r\n        require(Candidates[_id].id !=0, \"id dosen't exist\");\r\n\r\n        //if all conditions are passed,\r\n        //incrementing vote count of candidate with respective id, voter has voted to.  \r\n        Candidates[_id].voteCount+=1;\r\n\r\n        //after the vote has been casted successfully, mark hasVoted bool flag for the particular account as 'true'.\r\n        hasVoted[msg.sender] = true ;\r\n\r\n        //logging the voting details\r\n        emit  electionsUpdated(_id, Candidates[_id].name, Candidates[_id].party, Candidates[_id].voteCount);\r\n    \r\n    }\r\n\r\n}",
  "sourcePath": "D:/College/Major Project/E_voting-dapp/contracts/Elections.sol",
  "compiler": {
    "name": "solc",
    "version": "0.5.0+commit.1d4f565a.Emscripten.clang"
  },
  "schemaVersion": "3.0.1",
  "updatedAt": "2021-10-24T16:42:27.329Z",
  "devdoc": {
    "methods": {}
  },
  "userdoc": {
    "methods": {}
  }
}