{
  "contractName": "Elections",
  "abi": [
    {
      "inputs": [],
      "payable": false,
      "stateMutability": "nonpayable",
      "type": "constructor"
    },
    {
      "anonymous": false,
      "inputs": [
        {
          "indexed": false,
          "internalType": "uint256",
          "name": "id",
          "type": "uint256"
        },
        {
          "indexed": false,
          "internalType": "string",
          "name": "name",
          "type": "string"
        },
        {
          "indexed": false,
          "internalType": "string",
          "name": "party",
          "type": "string"
        },
        {
          "indexed": false,
          "internalType": "uint256",
          "name": "voteCount",
          "type": "uint256"
        }
      ],
      "name": "electionsUpdated",
      "type": "event"
    },
    {
      "constant": true,
      "inputs": [
        {
          "internalType": "uint256",
          "name": "",
          "type": "uint256"
        }
      ],
      "name": "Candidates",
      "outputs": [
        {
          "internalType": "uint256",
          "name": "id",
          "type": "uint256"
        },
        {
          "internalType": "string",
          "name": "name",
          "type": "string"
        },
        {
          "internalType": "string",
          "name": "party",
          "type": "string"
        },
        {
          "internalType": "uint256",
          "name": "voteCount",
          "type": "uint256"
        }
      ],
      "payable": false,
      "stateMutability": "view",
      "type": "function"
    },
    {
      "constant": true,
      "inputs": [],
      "name": "candidateCount",
      "outputs": [
        {
          "internalType": "uint256",
          "name": "",
          "type": "uint256"
        }
      ],
      "payable": false,
      "stateMutability": "view",
      "type": "function"
    },
    {
      "constant": true,
      "inputs": [
        {
          "internalType": "address",
          "name": "",
          "type": "address"
        }
      ],
      "name": "hasVoted",
      "outputs": [
        {
          "internalType": "bool",
          "name": "",
          "type": "bool"
        }
      ],
      "payable": false,
      "stateMutability": "view",
      "type": "function"
    },
    {
      "constant": false,
      "inputs": [
        {
          "internalType": "uint256",
          "name": "_id",
          "type": "uint256"
        }
      ],
      "name": "Vote",
      "outputs": [],
      "payable": false,
      "stateMutability": "nonpayable",
      "type": "function"
    }
  ],
  "bytecode": "0x608060405234801561001057600080fd5b506100636040518060400160405280600f81526020016e4e6172656e6472612044204d6f646960881b815250604051806040016040528060038152602001620424a560ec1b81525061010960201b60201c565b6100b26040518060400160405280600c81526020016b526168756c2047616e64686960a01b81525060405180604001604052806003815260200162494e4360e81b81525061010960201b60201c565b6101046040518060400160405280600f81526020016e105c9d9a5b990812d95a9c9a5dd85b608a1b8152506040518060400160405280600381526020016204141560ec1b81525061010960201b60201c565b610226565b60008054600190810180835560408051608081018252828152602080820188815282840188905260608301879052938652848152919094208451815591518051929361015d9390850192919091019061018b565b506040820151805161017991600284019160209091019061018b565b50606082015181600301559050505050565b828054600181600116156101000203166002900490600052602060002090601f016020900481019282601f106101cc57805160ff19168380011785556101f9565b828001600101855582156101f9579182015b828111156101f95782518255916020019190600101906101de565b50610205929150610209565b5090565b61022391905b80821115610205576000815560010161020f565b90565b61058e806102356000396000f3fe608060405234801561001057600080fd5b506004361061004c5760003560e01c806309eef43e14610051578063290e92121461008b578063a9a981a314610194578063dcd6a5cd146101ae575b600080fd5b6100776004803603602081101561006757600080fd5b50356001600160a01b03166101cd565b604080519115158252519081900360200190f35b6100a8600480360360208110156100a157600080fd5b50356101e2565b604051808581526020018060200180602001848152602001838103835286818151815260200191508051906020019080838360005b838110156100f55781810151838201526020016100dd565b50505050905090810190601f1680156101225780820380516001836020036101000a031916815260200191505b50838103825285518152855160209182019187019080838360005b8381101561015557818101518382015260200161013d565b50505050905090810190601f1680156101825780820380516001836020036101000a031916815260200191505b50965050505050505060405180910390f35b61019c610320565b60408051918252519081900360200190f35b6101cb600480360360208110156101c457600080fd5b5035610326565b005b60026020526000908152604090205460ff1681565b600160208181526000928352604092839020805481840180548651600296821615610100026000190190911695909504601f8101859004850286018501909652858552909491939290919083018282801561027e5780601f106102535761010080835404028352916020019161027e565b820191906000526020600020905b81548152906001019060200180831161026157829003601f168201915b50505060028085018054604080516020601f60001961010060018716150201909416959095049283018590048502810185019091528181529596959450909250908301828280156103105780601f106102e557610100808354040283529160200191610310565b820191906000526020600020905b8154815290600101906020018083116102f357829003601f168201915b5050505050908060030154905084565b60005481565b3360009081526002602052604090205460ff161561038b576040805162461bcd60e51b815260206004820152601760248201527f596f75206861766520766f74656420416c726561647921000000000000000000604482015290519081900360640190fd5b6000818152600160205260409020546103de576040805162461bcd60e51b815260206004820152601060248201526f1a5908191bdcd95b89dd08195e1a5cdd60821b604482015290519081900360640190fd5b6000818152600160208181526040808420600381018054850181553386526002808552838720805460ff1916871790559587905284845254825187815260608101829052608094810185815283870180546000199881161561010002989098019097168890049582018690527f693479d9a01eee2eef432469f81e9d908b9b060b88cc3595181d6e1f1f447cc3978997969401949293919290919083019060a0840190879080156104d05780601f106104a5576101008083540402835291602001916104d0565b820191906000526020600020905b8154815290600101906020018083116104b357829003601f168201915b50508381038252855460026000196101006001841615020190911604808252602090910190869080156105445780601f1061051957610100808354040283529160200191610544565b820191906000526020600020905b81548152906001019060200180831161052757829003601f168201915b5050965050505050505060405180910390a15056fea265627a7a723158205eaab6fd9142b4fec7449a559d9967d52d2fd7b73e38997a621cb294d70873ee64736f6c63430005100032",
  "source": "pragma solidity >=0.4.22 < 0.9.0;\r\n\r\ncontract Elections{\r\n    //create a candidate structure.\r\n    struct Candidate{\r\n        uint id;\r\n        string name;\r\n        string party;\r\n        uint voteCount;\r\n    }\r\n\r\n    //Candidate counter\r\n    uint public candidateCount;\r\n\r\n    //mappings \r\n    //1. candidates ; 2. hasVoted (for particualr accounts, to check have they voted already.)\r\n    \r\n    mapping(uint => Candidate) public Candidates;\r\n    mapping(address => bool) public hasVoted;\r\n\r\n    //creating an event to keep the logs after the voting process.\r\n    event electionsUpdated(\r\n        uint id,\r\n        string name,\r\n        string party,\r\n        uint voteCount\r\n        );\r\n    \r\n    //defining the constructor.\r\n    constructor() public {\r\n        addCandidate(\"Narendra D Modi\", \"BJP\");\r\n        addCandidate(\"Rahul Gandhi\", \"INC\");\r\n        addCandidate(\"Arvind Kejriwal\",\"AAP\");\r\n    }\r\n    \r\n    // defining a function to add the candidates. shouldn't be a public function\r\n    //memory keyword specifies storing data temporarily\r\n    function addCandidate(string memory name, string memory party) private {\r\n        candidateCount++;\r\n        // populating Candidates mapping with a real candidate information on particular index (candidateCount).\r\n        Candidates[candidateCount] = Candidate(candidateCount,name,party,0);\r\n        //initial votes for every candidate is set as 0 by default.\r\n\r\n    }\r\n\r\n\r\n    //definig a function for casting vote\r\n    function Vote(uint _id) public{\r\n        \r\n        //puttting a condition before the process. If the particulare account has already voted, it can't vote further.\r\n        // msg is a global variable. msg.sender will return the particular address of the voter.\r\n        require(!hasVoted[msg.sender],'You have voted Already!');\r\n        \r\n        //checking the vote is casted for a valid candidate id\r\n        require(Candidates[_id].id !=0, \"id dosen't exist\");\r\n\r\n        //if all conditions are passed,\r\n        //incrementing vote count of candidate with respective id, voter has voted to.  \r\n        Candidates[_id].voteCount+=1;\r\n\r\n        //after the vote has been casted successfully, mark hasVoted bool flag for the particular account as 'true'.\r\n        hasVoted[msg.sender] = true ;\r\n\r\n        //logging the voting details\r\n        emit  electionsUpdated(_id, Candidates[_id].name, Candidates[_id].party, Candidates[_id].voteCount);\r\n    \r\n    }\r\n\r\n}",
  "sourcePath": "D:\\College\\Major Project\\E_voting-dapp\\contracts\\Elections.sol",
  "compiler": {
    "name": "solc",
    "version": "0.5.16+commit.9c3226ce.Emscripten.clang"
  },
  "schemaVersion": "3.4.7",
  "updatedAt": "2022-04-29T10:02:40.774Z",
  "networkType": "ethereum",
  "devdoc": {
    "methods": {}
  },
  "userdoc": {
    "methods": {}
  }
}